:100000000C942A000C942D0F0C94600F0C94930FF9
:100010000C9447000C9447000C946A0A0C949D0AB7
:100020000C9447000C9447000C9447000C94470034
:100030000C947D0B0C94D0080C9403090C94360995
:100040000C940C130C9447000C9447000C9447003C
:100050000C94470011241FBECFE5D8E0DEBFCDBF12
:1000600011E0A0E6B0E0E8EAF2E402C005900D92EB
:10007000AE3AB107D9F711E0AEEAB1E001C01D9286
:10008000AD3CB107E1F70E94801F0C9452210C9403
:100090000000EF92FF920F931F937B018C0120E0F1
:1000A00030E040E05FE40E94F50388238CF0C80153
:1000B000B70120E030E040E05FE40E94C1010E940F
:1000C00055049B01AC01205030404040504806C0D0
:1000D000C801B7010E9455049B01AC01B901CA01D6
:1000E0001F910F91FF90EF900895A0E0B0E0EBE733
:1000F000F0E00C941B21DC012B01FA019C91923061
:1001000008F439C1EB018881823008F433C194309E
:1001100069F4843009F02FC111969C91119789815F
:10012000981709F428C1ACE7B0E025C1843009F480
:1001300021C18230A9F4923009F01DC19A01AD01AC
:1001400088E0EA010990AE01E90109929E0181501F
:10015000C1F7E201898111969C918923818308C1AD
:10016000923009F407C112962D903C901397EB0141
:100170008A819B811496AD90BD90CD90DC901797AD
:10018000EC80FD800E811F819101281B390BB90184
:1001900037FF04C066277727621B730B6032710537
:1001A0000CF061C0121613066CF537014801062EDB
:1001B00004C096948794779467940A94D2F721E0C8
:1001C00030E040E050E004C0220F331F441F551FB1
:1001D0006A95D2F721503040404050402E213F21B7
:1001E00040235123211531054105510521F021E01E
:1001F00030E040E050E079018A01E628F72808293C
:1002000019293CC0232BD1F1260E371E350146019A
:10021000062E04C096948794779467940A94D2F734
:1002200021E030E040E050E004C0220F331F441FC3
:10023000551F6A95D2F721503040404050402A2146
:100240003B214C215D21211531054105510521F04E
:1002500021E030E040E050E059016A01A628B728CB
:10026000C828D9280BC0821593052CF01C01AA249C
:10027000BB24650103C0EE24FF24870111969C91E5
:10028000D20111968C91981709F445C0992339F041
:10029000A80197012A193B094C095D0906C0A6016E
:1002A00095012E193F09400B510B57FD08C01182D3
:1002B0003382228224833583468357831DC081E0A5
:1002C00081833382228288279927DC01821B930B4A
:1002D000A40BB50B84839583A683B7830DC0220F2F
:1002E000331F441F551F24833583468357838281E0
:1002F000938101979383828324813581468157813D
:10030000DA01C9010197A109B1098F5F9F4FAF4F72
:10031000BF4328F30BC0918333822282EA0CFB1C7B
:100320000C1D1D1DE482F5820683178383E0808304
:10033000248135814681578157FF1AC0C901AA27F8
:1003400097FDA095BA2F81709070A070B0705695EF
:10035000479537952795822B932BA42BB52B848318
:100360009583A683B7838281938101969383828349
:10037000DF0101C0D201CD01CDB7DEB7E2E10C94BF
:100380003721A0E2B0E0E7ECF1E00C94272169838B
:100390007A838B839C832D833E834F835887E9E048
:1003A000EE2EF12CEC0EFD1ECE010196B7010E943F
:1003B00046068E010F5E1F4FCE010596B8010E94C2
:1003C00046068A8991E089278A8BC701B801AE0168
:1003D000475E5F4F0E9475000E947105A096E6E09F
:1003E0000C944321A0E2B0E0E8EFF1E00C94272167
:1003F00069837A838B839C832D833E834F835887C5
:10040000F9E0EF2EF12CEC0EFD1ECE010196B701A6
:100410000E9446068E010F5E1F4FCE010596B80161
:100420000E944606C701B801AE01475E5F4F0E94B9
:1004300075000E947105A096E6E00C944321A0E2AD
:10044000B0E0E5E2F2E00C941B2169837A838B83B0
:100450009C832D833E834F835887CE010196BE0136
:10046000675F7F4F0E944606CE010596BE016F5E14
:100470007F4F0E9446069985923088F089898230A4
:10048000C8F0943019F4823051F404C0843029F457
:10049000923081F48CE790E0C6C0923049F420E0BD
:1004A0009A858A89981321E02A87CE010996BBC0D4
:1004B000823049F420E09A858A89981321E02A8BBA
:1004C000CE014196B0C02D843E844F8458886D88FB
:1004D0007E888F88988CEE24FF248701AA24BB2471
:1004E000650140E050E060E070E0E0E0F0E0C10174
:1004F00081709070892BE9F0E60CF71C081D191D1E
:100500009A01AB012A0D3B1D4C1D5D1D80E090E062
:10051000A0E0B0E0E614F7040805190520F481E036
:1005200090E0A0E0B0E0BA01A901480F591F6A1F8E
:100530007B1FAA0CBB1CCC1CDD1C97FE08C081E0F5
:1005400090E0A0E0B0E0A82AB92ACA2ADB2A3196B6
:10055000E032F10549F0660C771C881C991C569412
:10056000479437942794C3CFFA85EA892B893C892D
:100570008B859C85280F391F2E5F3F4F17C0CA01FE
:1005800081709070892B61F016950795F794E79428
:1005900080E090E0A0E0B0E8E82AF92A0A2B1B2BC3
:1005A00076956795579547952F5F3F4F77FDE7CF36
:1005B0000CC0440F551F661F771F17FD4160EE0CDE
:1005C000FF1C001F111F21503040403090E05907A0
:1005D00090E0690790E4790760F32B8F3C8FDB0193
:1005E000CA018F779070A070B07080349105A1051A
:1005F000B10561F447FD0AC0E114F10401051105DC
:1006000029F0405C5F4F6F4F7F4F40781A8EFE1786
:1006100011F081E08A8F4D8F5E8F6F8F78A383E01A
:10062000898FCE0149960E947105A096E2E10C9453
:100630003721A8E1B0E0EFE1F3E00C9423216983D6
:100640007A838B839C832D833E834F835887B9E0C5
:10065000EB2EF12CEC0EFD1ECE010196B7010E948F
:1006600046068E010F5E1F4FCE010596B8010E940F
:1006700046062985223008F47EC03989323010F4CC
:10068000B8017CC08A859A8989278A87243011F02D
:10069000223031F4231709F06EC06CE770E06EC0B1
:1006A000343039F41D861E861F86188A1C861B86E8
:1006B00004C0323021F484E08987B7015FC02B8504
:1006C0003C858B899C89281B390B3C872B87ED84C3
:1006D000FE840F851889AD88BE88CF88D88CEA142F
:1006E000FB040C051D0540F4EE0CFF1C001F111F40
:1006F000215030403C872B8720E030E040E050E044
:1007000080E090E0A0E0B0E460E070E0EA14FB0478
:100710000C051D0540F0282B392B4A2B5B2BEA18C2
:10072000FB080C091D09B695A79597958795EE0CC2
:10073000FF1C001F111F6F5F7F4F6F31710531F775
:10074000DA01C9018F779070A070B0708034910584
:10075000A105B10561F427FD0AC0E114F10401050A
:10076000110529F0205C3F4F4F4F5F4F20782D87B8
:100770003E874F87588BBE01675F7F4FCB010E943A
:1007800071056896EAE00C943F21A8E1B0E0EBEC3B
:10079000F3E00C94272169837A838B839C832D83D8
:1007A0003E834F83588789E0E82EF12CEC0EFD1E26
:1007B000CE010196B7010E9446068E010F5E1F4FC3
:1007C000CE010596B8010E9446068985823040F028
:1007D0008989823028F0C701B8010E94BE0601C095
:1007E0008FEF6896E6E00C944321A8E1B0E0EBEFD0
:1007F000F3E00C94272169837A838B839C832D8378
:100800003E834F83588789E0E82EF12CEC0EFD1EC5
:10081000CE010196B7010E9446068E010F5E1F4F62
:10082000CE010596B8010E9446068985823040F0C7
:100830008989823028F0C701B8010E94BE0601C034
:100840008FEF6896E6E00C944321A8E1B0E0EBE27C
:10085000F4E00C94272169837A838B839C832D8316
:100860003E834F83588789E0E82EF12CEC0EFD1E65
:10087000CE010196B7010E9446068E010F5E1F4F02
:10088000CE010596B8010E9446068985823040F067
:100890008989823028F0C701B8010E94BE0601C0D4
:1008A00081E06896E6E00C944321ACE0B0E0EBE533
:1008B000F4E00C942B2169837A838B839C83CE0193
:1008C0000196BE016B5F7F4F0E9446068D8182308C
:1008D00061F1823050F1843021F48E81882351F10E
:1008E0002EC02F81388537FD20C06E812F31310514
:1008F0001CF06623F9F023C08EE190E0821B930B7D
:1009000029853A854B855C8504C056954795379572
:1009100027958A95D2F76623B1F05095409530958A
:1009200021953F4F4F4F5F4F0EC020E030E040E039
:1009300050E009C02FEF3FEF4FEF5FE704C020E02A
:1009400030E040E050E8B901CA012C96E2E00C9496
:100950004721A8E0B0E0EFEAF4E00C9423217B010A
:100960008C01611571058105910519F482E0898377
:1009700060C083E089838EE1C82ED12CDC82CB82DB
:10098000ED82FE820F831887C801B7010E942205FD
:10099000FC013197F7FF3BC0222733272E1B3F0B6B
:1009A00057016801022E04C0D694C794B794A79447
:1009B0000A94D2F740E050E060E070E081E090E01F
:1009C000A0E0B0E004C0880F991FAA1FBB1F2A95A2
:1009D000D2F70197A109B1098E219F21A023B1234C
:1009E0000097A105B10521F041E050E060E070E022
:1009F0004A295B296C297D294D835E836F83788723
:100A00008EE190E08E1B9F0B9C838B8312C03097EE
:100A100081F00E2E04C0EE0CFF1C001F111F0A9463
:100A2000D2F7ED82FE820F831887CE1ADF0ADC82AE
:100A3000CB821A82CE0101960E9471052896EAE0C7
:100A40000C943F21EF92FF920F931F937B018C0137
:100A500080E0E81680E0F80681E0080780E01807EB
:100A600088F48FEFE816F1040105110531F028F044
:100A700088E090E0A0E0B0E017C080E090E0A0E067
:100A8000B0E012C080E0E81680E0F80680E00807D9
:100A900081E0180728F088E190E0A0E0B0E004C011
:100AA00080E190E0A0E0B0E020E230E040E050E003
:100AB000281B390B4A0B5B0B04C016950795F7945E
:100AC000E7948A95D2F7F701EC57FF4F8081281BF6
:100AD000310941095109C9011F910F91FF90EF9010
:100AE0000895DF92EF92FF920F931F93FC01E48031
:100AF000F58006811781D1808081823048F480E0C2
:100B000090E0A0E1B0E0E82AF92A0A2B1B2BA5C04F
:100B1000843009F49FC0823021F4EE24FF24870141
:100B200005C0E114F1040105110519F4E0E0F0E05D
:100B300096C0628173819FEF623879070CF05BC0C9
:100B400022E83FEF261B370B2A3131052CF020E03D
:100B500030E040E050E02AC0B801A701022E04C0F6
:100B600076956795579547950A94D2F781E090E07E
:100B7000A0E0B0E004C0880F991FAA1FBB1F2A95F0
:100B8000D2F70197A109B1098E219F21A023B1239A
:100B90000097A105B10521F081E090E0A0E0B0E070
:100BA0009A01AB01282B392B4A2B5B2BDA01C901A7
:100BB0008F779070A070B07080349105A105B10559
:100BC00039F427FF09C0205C3F4F4F4F5F4F04C0EF
:100BD000215C3F4F4F4F5F4FE0E0F0E02030A0E05E
:100BE0003A07A0E04A07A0E45A0710F0E1E0F0E07D
:100BF00079018A0127C06038710564F5FB01E1586D
:100C0000FF4FD801C7018F779070A070B07080340B
:100C10009105A105B10539F4E7FE0DC080E490E02F
:100C2000A0E0B0E004C08FE390E0A0E0B0E0E80E08
:100C3000F91E0A1F1B1F17FF05C016950795F7948D
:100C4000E794319687E016950795F794E7948A958F
:100C5000D1F705C0EE24FF248701EFEFF0E06E2FFF
:100C6000679566276795902F9F77D794DD24D79453
:100C70008E2F8695492F462B582F5D29B701CA0123
:100C80001F910F91FF90EF90DF900895FC01DB0121
:100C9000408151812281622F6F7770E0221F2227CD
:100CA000221F9381892F880F822B282F30E0991FD4
:100CB0009927991F11969C93119721153105A9F534
:100CC000411551056105710511F482E037C082E8D4
:100CD0009FEF13969C938E9312979A01AB0167E056
:100CE000220F331F441F551F6A95D1F783E08C9361
:100CF0000DC0220F331F441F551F12968D919C91DA
:100D00001397019713969C938E931297203080E04F
:100D1000380780E0480780E4580758F314962D936D
:100D20003D934D935C93179708952F3F310579F4C8
:100D3000411551056105710519F484E08C930895FE
:100D400064FF03C081E08C9312C01C9210C02F5727
:100D5000304013963C932E93129783E08C9387E058
:100D6000440F551F661F771F8A95D1F7706414963C
:100D70004D935D936D937C93179708951F93DC01BA
:100D8000FB019C91923008F447C08081823008F4C6
:100D900043C0943051F411961C91843099F58181AF
:100DA000682F70E0611B71093FC0843021F09230E0
:100DB00031F48230B9F18181882389F12DC01196F7
:100DC0001C9111978230F1F081811817D9F4129695
:100DD0002D913C911397828193818217930794F010
:100DE00028173907BCF014968D919D910D90BC91F8
:100DF000A02D2481358146815781281739074A075C
:100E00005B0718F4112341F00AC082179307A40767
:100E1000B50740F4112319F061E070E005C06FEFF1
:100E20007FEF02C060E070E0CB011F910895DF9377
:100E3000CF93CDB7DEB7A0E4B0E0E0E4F0E080818E
:100E400080688C93A0E4B0E0E0E4F0E080818F7BE8
:100E50008C93A0E4B0E0E0E4F0E080818E7F8C939E
:100E6000ABE2B0E0EBE2F0E0808182608C93A0E442
:100E7000B0E0E0E4F0E0808182608C93A0E4B0E038
:100E8000E0E4F0E0808184608C93AAE2B0E0EAE2E2
:100E9000F0E080818B7F8C93A0E4B0E0E0E4F0E0B0
:100EA00080818F7E8C93A0E4B0E0E0E4F0E080816C
:100EB0008F7D8C93A0E4B0E0E0E4F0E08081886076
:100EC0008C93A0E4B0E0E0E4F0E080818F778C9335
:100ED000E0E4F0E01082E9E2F0E08FEC8083AAE247
:100EE000B0E0EAE2F0E0808188608C93AAE2B0E0B2
:100EF000EAE2F0E0808180618C93CF91DF910895E8
:100F0000DF93CF930F92CDB7DEB78983EBE2F0E0AA
:100F10008081829586958770882F90E0817090708F
:100F20000097A1F3ECE2F0E0898180830F90CF91EC
:100F3000DF910895DF93CF930F92CDB7DEB789830A
:100F4000ECE2F0E0898180830F90CF91DF910895EA
:100F5000DF93CF93CDB7DEB7EBE2F0E0808188235B
:100F6000DCF7ECE2F0E08081CF91DF910895DF9330
:100F7000CF930F92CDB7DEB78983EBE2F0E08081AB
:100F8000829586958770882F90E081709070009789
:100F9000A1F3ECE2F0E089818083EBE2F0E0808174
:100FA0008823DCF7ECE2F0E080810F90CF91DF91B5
:100FB0000895DF93CF93CDB7DEB7ECE2F0E0808108
:100FC000CF91DF910895DF93CF9300D00F92CDB7EB
:100FD000DEB79B838A8319820EC08981282F30E077
:100FE0008A819B81FC01E20FF31F80810E948007B0
:100FF00089818F5F89838981282F30E08A819B8155
:10100000FC01E20FF31F8081882339F70F900F90C6
:101010000F90CF91DF9108950F931F93DF93CF939C
:1010200000D00F92CDB7DEB79B838A8319820FC0A1
:101030008981282F30E08A819B818C01020F131F48
:101040000E94A807F801808389818F5F8983898145
:10105000282F30E08A819B81FC01E20FF31F808101
:10106000882331F70F900F900F90CF91DF911F9150
:101070000F910895DF93CF9300D0CDB7DEB79A8359
:10108000898389819A81009731F089819A8190932F
:10109000AF018093AE010F900F90CF91DF91089533
:1010A000DF93CF9300D0CDB7DEB79A838983898150
:1010B0009A81009731F089819A819093B30180934E
:1010C000B2010F900F90CF91DF910895DF93CF93EE
:1010D00000D0CDB7DEB79A83898389819A81009742
:1010E00031F089819A819093B1018093B0010F9082
:1010F0000F90CF91DF910895DF93CF93CDB7DEB7F7
:10110000AAE2B0E0EAE2F0E0808180688C93CF91BF
:10111000DF910895DF93CF93CDB7DEB7AAE2B0E0B9
:10112000EAE2F0E080818F778C93CF91DF91089590
:10113000DF93CF93CDB7DEB7AAE2B0E0EAE2F0E00A
:10114000808180648C93CF91DF910895DF93CF935A
:10115000CDB7DEB7AAE2B0E0EAE2F0E080818F7BB3
:101160008C93CF91DF910895DF93CF93CDB7DEB706
:10117000AAE2B0E0EAE2F0E0808180628C93CF9155
:10118000DF910895DF93CF93CDB7DEB7AAE2B0E049
:10119000EAE2F0E080818F7D8C93CF91DF9108951A
:1011A0001F920F920FB60F9211242F933F934F93DC
:1011B0005F936F937F938F939F93AF93BF93EF93BF
:1011C000FF93DF93CF93CDB7DEB78091AE019091BF
:1011D000AF01009729F0E091AE01F091AF010995C0
:1011E000CF91DF91FF91EF91BF91AF919F918F913F
:1011F0007F916F915F914F913F912F910F900FBE13
:101200000F901F9018951F920F920FB60F921124F6
:101210002F933F934F935F936F937F938F939F93FE
:10122000AF93BF93EF93FF93DF93CF93CDB7DEB729
:101230008091B0019091B101009729F0E091B00147
:10124000F091B1010995CF91DF91FF91EF91BF919D
:10125000AF919F918F917F916F915F914F913F914E
:101260002F910F900FBE0F901F9018951F920F9205
:101270000FB60F9211242F933F934F935F936F9369
:101280007F938F939F93AF93BF93EF93FF93DF93DE
:10129000CF93CDB7DEB78091B2019091B3010097A3
:1012A00029F0E091B201F091B3010995CF91DF915E
:1012B000FF91EF91BF91AF919F918F917F916F912E
:1012C0005F914F913F912F910F900FBE0F901F9004
:1012D0001895DF93CF93CDB7DEB7EFE4F0E010823F
:1012E000EEE4F0E01082AFE4B0E0EFE4F0E0808103
:1012F0008E7F8C93AFE4B0E0EFE4F0E080818D7FEF
:101300008C93AEE4B0E0EEE4F0E0808188608C93F2
:10131000AEE4B0E0EEE4F0E080818F7E8C93A9E54E
:10132000B0E0E9E5F0E0808180618C93EAE4F0E0F0
:1013300087EA91E691838083AEE4B0E0EEE4F0E0EA
:10134000808181608C93AEE4B0E0EEE4F0E08081D7
:1013500082608C93AEE4B0E0EEE4F0E080818B7FBD
:101360008C93CF91DF910895DF93CF9300D0CDB7C9
:10137000DEB79A838983E6E4F0E089819A819183DC
:1013800080830F900F90CF91DF910895DF93CF93DB
:1013900000D0CDB7DEB79A838983ECE4F0E0898191
:1013A0009A81918380830F900F90CF91DF91089560
:1013B000DF93CF93CDB7DEB7ECE4F0E0808191818D
:1013C000CF91DF910895DF93CF9300D0CDB7DEB7F3
:1013D0009A838983EAE4F0E089819A81918380830A
:1013E0000F900F90CF91DF910895DF93CF930F92DD
:1013F000CDB7DEB789838981813041F4AEE4B0E0B6
:10140000EEE4F0E0808180648C930AC089818823B7
:1014100039F4AEE4B0E0EEE4F0E080818F7B8C93B1
:101420000F90CF91DF910895DF93CF93CDB7DEB7C3
:10143000E6E4F0E080819181CF91DF910895DF9320
:10144000CF93CDB7DEB7ECE4F0E011821082CF91FC
:10145000DF910895DF93CF93CDB7DEB7EFE4F0E0EF
:101460001082EEE4F0E01082ECE4F0E011821082F1
:10147000E6E4F0E011821082A9E5B0E0E9E5F0E0F1
:1014800080818F7D8C93CF91DF910895DF93CF93EF
:1014900000D0CDB7DEB79A83898389819A819093F2
:1014A000B5018093B4010F900F90CF91DF91089513
:1014B000DF93CF9300D0CDB7DEB79A83898389813C
:1014C0009A819093B7018093B6010F900F90CF91BE
:1014D000DF9108951F920F920FB60F9211242F9350
:1014E0003F934F935F936F937F938F939F93AF93AC
:1014F000BF93EF93FF93DF93CF93CDB7DEB7809188
:10150000B4019091B501009729F0E091B401F091F8
:10151000B5010995CF91DF91FF91EF91BF91AF9107
:101520009F918F917F916F915F914F913F912F91FB
:101530000F900FBE0F901F9018951F920F920FB62D
:101540000F9211242F933F934F935F936F937F9349
:101550008F939F93AF93BF93EF93FF93DF93CF93BB
:10156000CDB7DEB78091B6019091B701009729F011
:10157000E091B601F091B7010995CF91DF91FF910C
:10158000EF91BF91AF919F918F917F916F915F91FB
:101590004F913F912F910F900FBE0F901F90189574
:1015A000DF93CF93CDB7DEB7ADE2B0E0EDE2F0E090
:1015B000808180618C93ADE2B0E0EDE2F0E080816B
:1015C00080688C93ADE2B0E0EDE2F0E08081806273
:1015D0008C93ADE2B0E0EDE2F0E08081877F8C9308
:1015E000ADE2B0E0EDE2F0E080818B7F8C93ADE284
:1015F000B0E0EDE2F0E080818E7F8C93ADE2B0E070
:10160000EDE2F0E080818D7F8C93AEE2B0E0EEE21F
:10161000F0E080818E7F8C93ADE2B0E0EDE2F0E00F
:10162000808180648C93CF91DF910895DF93CF9375
:10163000CDB7DEB7ADE2B0E0EDE2F0E080818F7EC5
:101640008C93ADE2B0E0EDE2F0E0808180688C93B5
:10165000ADE2B0E0EDE2F0E0808180628C93ADE23B
:10166000B0E0EDE2F0E0808180648C93CF91DF9177
:101670000895DF93CF930F92CDB7DEB78983EFE262
:10168000F0E089818083EEE2F0E080818823DCF75E
:10169000EFE2F0E080810F90CF91DF910895DF932A
:1016A000CF93CDB7DEB7EFE2F0E08081CF91DF914D
:1016B0000895DF93CF930F92CDB7DEB78983EFE222
:1016C000F0E0898180830F90CF91DF910895DF93BF
:1016D000CF9300D0CDB7DEB79A83898389819A8171
:1016E000009731F089819A819093B9018093B80174
:1016F0000F900F90CF91DF9108951F920F920FB628
:101700000F9211242F933F934F935F936F937F9387
:101710008F939F93AF93BF93EF93FF93DF93CF93F9
:10172000CDB7DEB78091B8019091B901009729F04B
:10173000E091B801F091B9010995CF91DF91FF9146
:10174000EF91BF91AF919F918F917F916F915F9139
:101750004F913F912F910F900FBE0F901F901895B2
:10176000DF93CF93CDB7DEB7EAE3F0E08FEF80836E
:10177000E7E3F0E08FEB8083E4E3F0E080EF808349
:10178000E1E3F0E08AEF8083EBE3F0E01082E8E34E
:10179000F0E080E18083E5E3F0E083E08083E2E352
:1017A000F0E084E08083CF91DF910895DF93CF93C1
:1017B000CDB7DEB7A1E2B0E0E1E2F0E080818E7F5C
:1017C0008C93A1E2B0E0E1E2F0E080818D7F8C9328
:1017D000E0E2F0E088E48083A6E5B0E0E6E5F0E052
:1017E000808184608C93CF91DF910895DF93CF93B4
:1017F0000F92CDB7DEB78983E2E2F0E08981808382
:10180000A6E5B0E0E6E5F0E0808180648C93A6E593
:10181000B0E0E6E5F0E0808184608C930F90CF919A
:10182000DF910895DF93CF930F92CDB7DEB7198282
:10183000E6E5F0E084EE8083E6E5F0E08081882351
:10184000DCF7E1E2F0E08081882F90E0887F907003
:101850008830910511F081E0898389810F90CF91C3
:10186000DF910895DF93CF930F92CDB7DEB7198242
:10187000E6E5F0E084EE8083E6E5F0E08081882311
:10188000DCF7E1E2F0E08081882F90E0887F9070C3
:101890008031910511F082E0898389810F90CF9189
:1018A000DF910895DF93CF9300D0CDB7DEB78A8361
:1018B0001982E3E2F0E08A818083A3E2B0E0E3E210
:1018C000F0E0808181608C93E6E5F0E084EC808339
:1018D000E6E5F0E080818823DCF7E1E2F0E080815A
:1018E000882F90E0887F90708034910511F085E01A
:1018F000898389810F900F90CF91DF910895DF93B5
:10190000CF9300D0CDB7DEB78A831982E3E2F0E04F
:101910008A818083A3E2B0E0E3E2F0E080818E7F01
:101920008C93E6E5F0E084EC8083E6E5F0E08081EE
:101930008823DCF7E1E2F0E08081882F90E0887F67
:1019400090708831910511F083E0898389810F902F
:101950000F90CF91DF910895DF93CF9300D0CDB753
:10196000DEB78A831982E3E2F0E08A818083E6E5CC
:10197000F0E084EC8083E6E5F0E080818823DCF70A
:10198000E1E2F0E08081882F90E0887F90708832DB
:10199000910511F087E0898389810F900F90CF9195
:1019A000DF910895DF93CF9300D000D0CDB7DEB79D
:1019B0009B838A838A819B810097F9F01982E6E5EF
:1019C000F0E084EC8083E6E5F0E080818823DCF7BA
:1019D000E1E2F0E08081882F90E0887F9070803590
:1019E000910511F089E08983E3E2F0E08081EA81EA
:1019F000FB81808389818C8302C08FEF8C838C81F3
:101A00000F900F900F900F90CF91DF910895DF937B
:101A1000CF930F92CDB7DEB71982E6E5F0E084E808
:101A20008083E6E5F0E080818823DCF7E1E2F0E006
:101A30008081882F90E0887F90708835910511F023
:101A40008AE0898389810F90CF91DF910895DF9398
:101A5000CF93CDB7DEB7E6E5F0E084E98083E6E535
:101A6000F0E0808182958F70882F90E08170907077
:101A70008823A9F7CF91DF910895DF93CF9300D00A
:101A8000CDB7DEB79A83898380E00F900F90CF9116
:101A9000DF910895DF93CF93CDB7DEB7AFE5B0E028
:101AA000EFE5F0E0808180688C93CF91DF9108951D
:101AB000DF93CF93CDB7DEB7AFE5B0E0EFE5F0E071
:101AC00080818F778C93CF91DF910895DF93CF93AF
:101AD000CDB7DEB7A5E5B0E0E5E5F0E08081826056
:101AE0008C93A5E5B0E0E5E5F0E080818E7F8C93F6
:101AF000CF91DF910895DF93CF93CDB7DEB7ABE5FC
:101B0000B0E0EBE5F0E0808180648C93CF91DF91D1
:101B10000895DF93CF93CDB7DEB7ABE5B0E0EBE54B
:101B2000F0E080818F7B8C93CF91DF910895DF93DC
:101B3000CF9300D00F92CDB7DEB789838981282F4C
:101B400030E03B832A838A819B818230910599F121
:101B50002A813B812330310534F48A819B81813095
:101B60009105C1F145C02A813B8123303105A1F0A7
:101B70008A819B8184309105D9F5A5E5B0E0E5E542
:101B8000F0E0808182608C93A5E5B0E0E5E5F0E0CF
:101B900080818E7F8C932CC0A5E5B0E0E5E5F0E078
:101BA000808182608C93A5E5B0E0E5E5F0E080817E
:101BB00081608C931DC0A5E5B0E0E5E5F0E0808193
:101BC0008D7F8C93A5E5B0E0E5E5F0E080818E7F28
:101BD0008C930EC0A5E5B0E0E5E5F0E08081816082
:101BE0008C93A5E5B0E0E5E5F0E080818D7F8C93F6
:101BF0000F900F900F90CF91DF910895DF93CF93C7
:101C0000CDB7DEB7A5E5B0E0E5E5F0E080818B7FFC
:101C10008C93A5E5B0E0E5E5F0E0808188608C93E9
:101C2000CF91DF910895DF93CF93CDB7DEB7ABE5CA
:101C3000B0E0EBE5F0E0808180688C93CF91DF919C
:101C40000895DF93CF93CDB7DEB7ABE5B0E0EBE51A
:101C5000F0E080818F778C93CF91DF910895DF93AF
:101C6000CF9300D00F92CDB7DEB789838981282F1B
:101C700030E03B832A838A819B818230910599F1F0
:101C80002A813B812330310534F48A819B81813064
:101C90009105C1F145C02A813B8123303105A1F076
:101CA0008A819B8184309105D9F5A5E5B0E0E5E511
:101CB000F0E080818B7F8C93A5E5B0E0E5E5F0E076
:101CC000808188608C932CC0A5E5B0E0E5E5F0E06C
:101CD000808184608C93A5E5B0E0E5E5F0E080814B
:101CE00088608C931DC0A5E5B0E0E5E5F0E080815B
:101CF0008B7F8C93A5E5B0E0E5E5F0E08081877F00
:101D00008C930EC0A5E5B0E0E5E5F0E08081877F2B
:101D10008C93A5E5B0E0E5E5F0E0808184608C93EC
:101D20000F900F900F90CF91DF910895DF93CF9395
:101D3000CDB7DEB7A5E5B0E0E5E5F0E080818F7BCB
:101D40008C93CF91DF910895DF93CF93CDB7DEB71A
:101D5000ABE5B0E0EBE5F0E0808180628C93CF9161
:101D6000DF910895DF93CF93CDB7DEB7ABE5B0E059
:101D7000EBE5F0E080818F7D8C93CF91DF9108952A
:101D8000DF93CF9300D00F92CDB7DEB789838981DF
:101D9000282F30E03B832A838A819B818330910501
:101DA00069F02A813B812430310579F4A5E5B0E062
:101DB000E5E5F0E080818F7B8C9307C0A5E5B0E07E
:101DC000E5E5F0E0808180648C930F900F900F9098
:101DD000CF91DF910895DF93CF9300D0CDB7DEB7D9
:101DE0009A83898389819A81009731F089819A81C8
:101DF0009093BB018093BA010F900F90CF91DF9128
:101E00000895DF93CF9300D0CDB7DEB79A8389834F
:101E100089819A81009731F089819A819093BD01DF
:101E20008093BC010F900F90CF91DF910895DF93C5
:101E3000CF9300D0CDB7DEB79A83898389819A8109
:101E4000009731F089819A819093BF018093BE0100
:101E50000F900F90CF91DF9108951F920F920FB6C0
:101E60000F9211242F933F934F935F936F937F9320
:101E70008F939F93AF93BF93EF93FF93DF93CF9392
:101E8000CDB7DEB78091BA019091BB01009729F0E0
:101E9000E091BA01F091BB010995CF91DF91FF91DB
:101EA000EF91BF91AF919F918F917F916F915F91D2
:101EB0004F913F912F910F900FBE0F901F9018954B
:101EC0001F920F920FB60F9211242F933F934F93AF
:101ED0005F936F937F938F939F93AF93BF93EF9392
:101EE000FF93DF93CF93CDB7DEB78091BC01909184
:101EF000BD01009729F0E091BC01F091BD01099569
:101F0000CF91DF91FF91EF91BF91AF919F918F9111
:101F10007F916F915F914F913F912F910F900FBEE5
:101F20000F901F9018951F920F920FB60F921124C9
:101F30002F933F934F935F936F937F938F939F93D1
:101F4000AF93BF93EF93FF93DF93CF93CDB7DEB7FC
:101F50008091BE019091BF01009729F0E091BE01F0
:101F6000F091BF010995CF91DF91FF91EF91BF9162
:101F7000AF919F918F917F916F915F914F913F9121
:101F80002F910F900FBE0F901F901895DF93CF9356
:101F900000D000D000D0CDB7DEB78A836B834C83EE
:101FA00019828A81282F30E03E832D838D819E8186
:101FB0008130910509F449C02D813E8122303105DF
:101FC0002CF48D819E81009771F0D4C02D813E81CB
:101FD0002230310509F46BC08D819E8183309105DB
:101FE00009F497C0C7C08C818130A1F4ABE3B0E0A5
:101FF000EBE3F0E08081482F8B81282F30E081E0F7
:1020000090E0022E02C0880F991F0A94E2F7842BF9
:102010008C93B0C08C818823A9F4ABE3B0E0EBE3F0
:10202000F0E08081482F8B81282F30E081E090E024
:10203000022E02C0880F991F0A94E2F7809584232C
:102040008C9398C081E0898395C08C818130A1F404
:10205000A8E3B0E0E8E3F0E08081482F8B81282FEF
:1020600030E081E090E0022E02C0880F991F0A94B0
:10207000E2F7842B8C937EC08C818823A9F4A8E39B
:10208000B0E0E8E3F0E08081482F8B81282F30E03A
:1020900081E090E0022E02C0880F991F0A94E2F7B7
:1020A000809584238C9366C081E0898363C08C8192
:1020B0008130A1F4A5E3B0E0E5E3F0E08081482FB2
:1020C0008B81282F30E081E090E0022E02C0880F43
:1020D000991F0A94E2F7842B8C934CC08C8188233F
:1020E000A9F4A5E3B0E0E5E3F0E08081482F8B811F
:1020F000282F30E081E090E0022E02C0880F991F67
:102100000A94E2F7809584238C9334C081E089831C
:1021100031C08C818130A1F4A2E3B0E0E2E3F0E0D1
:102120008081482F8B81282F30E081E090E0022EC3
:1021300002C0880F991F0A94E2F7842B8C931AC06F
:102140008C818823A9F4A2E3B0E0E2E3F0E080818F
:10215000482F8B81282F30E081E090E0022E02C0D2
:10216000880F991F0A94E2F7809584238C9302C00C
:1021700081E08983898126960FB6F894DEBF0FBE71
:10218000CDBFCF91DF910895DF93CF9300D000D0E2
:102190000F92CDB7DEB78A836B8319828A81843030
:1021A00098F58A81282F30E03D832C838C819D8196
:1021B00081309105D1F02C813D81223031052CF404
:1021C0008C819D81009761F021C02C813D8122305E
:1021D000310581F08C819D818330910581F016C09D
:1021E000EBE3F0E08B81808311C0E8E3F0E08B81CA
:1021F00080830CC0E5E3F0E08B81808307C0E2E3DD
:10220000F0E08B81808302C081E0898389810F9017
:102210000F900F900F900F90CF91DF910895DF9363
:10222000CF93CDB7DEB727970FB6F894DEBF0FBEBA
:10223000CDBF89836A835C834B838981282F30E0FB
:102240003F832E834E815F814130510559F18E814C
:102250009F818230910534F42E813F812115310513
:1022600069F05CC04E815F814230510579F18E8109
:102270009F818330910509F43DC050C0E9E3F0E04F
:102280008081282F30E08A81882F90E0A90102C048
:10229000559547958A95E2F7CA018170EB81FC81DB
:1022A00080833EC0E6E3F0E08081282F30E08A8121
:1022B000882F90E0A90102C0559547958A95E2F7CD
:1022C000CA018170EB81FC8180832AC0E3E3F0E0E6
:1022D0008081282F30E08A81882F90E0A90102C0F8
:1022E000559547958A95E2F7CA018170EB81FC818B
:1022F000808316C0E0E3F0E08081282F30E08A81FF
:10230000882F90E0A90102C0559547958A95E2F77C
:10231000CA018170EB81FC81808302C01D8202C0F2
:1023200051E05D838D8127960FB6F894DEBF0FBE16
:10233000CDBFCF91DF910895DF93CF930F92CDB7AB
:10234000DEB78983EBE3F0E0898180830F90CF9142
:10235000DF910895DF93CF93CDB7DEB7A7E2B0E06A
:10236000E7E2F0E0808180648C93A7E2B0E0E7E2EE
:10237000F0E080818F778C9380E090E0A0EAB0E479
:102380008093840190938501A0938601B093870187
:10239000A6E2B0E0E6E2F0E0808181608C93A6E204
:1023A000B0E0E6E2F0E0808182608C93A6E2B0E0EB
:1023B000E6E2F0E0808184608C93A7E2B0E0E7E29F
:1023C000F0E080818F7D8C93CF91DF910895DF9332
:1023D000CF93CDB7DEB7A6E2B0E0E6E2F0E08081D1
:1023E00080688C93CF91DF910895DF93CF93CDB721
:1023F000DEB7A6E2B0E0E6E2F0E0808188608C9390
:10240000CF91DF910895DF93CF93CDB7DEB7A6E2EA
:10241000B0E0E6E2F0E080818F778C93CF91DF919E
:102420000895DF93CF9300D0CDB7DEB71A8219821B
:10243000E4E2F0E080819181CC01A0E0B0E0BC0159
:10244000CD010E94A904DC01CB01209184013091CF
:1024500085014091860150918701BC01CD010E9408
:102460001F02DC01CB01BC01CD0120E030E040E8DF
:1024700054E40E941903DC01CB01BC01CD010E9490
:102480004900DC01CB019A83898389819A810F906D
:102490000F90CF91DF910895DF93CF930F92CDB737
:1024A000DEB78983A7E2B0E0E7E2F0E08081807EDA
:1024B0008C93A7E2B0E0E7E2F0E090818981892B7C
:1024C0008C93A6E2B0E0E6E2F0E0808180648C9339
:1024D000E6E2F0E0808182958F70882F90E0817035
:1024E00090700097A9F3A6E2B0E0E6E2F0E0808108
:1024F00080618C930F90CF91DF910895DF93CF93FC
:102500000F92CDB7DEB78983A7E2B0E0E7E2F0E053
:102510008081807E8C93A7E2B0E0E7E2F0E09081DA
:102520008981892B8C93A6E2B0E0E6E2F0E080811D
:1025300080648C930F90CF91DF910895EF92FF927A
:102540000F931F93DF93CF9300D0CDB7DEB71A82DE
:102550001982E4E2F0E0808191817C0100E010E0EA
:102560008091840190918501A0918601B0918701AD
:10257000BC01CD010E944900DC01CB01282F30E0D5
:1025800040E050E0C801B7010E94B320DC01CB015C
:1025900028EE33E040E050E0BC01CD010E94B320C2
:1025A000DC01CB01072E7AE0B695A7959795879524
:1025B0007A95D1F7702D9A83898389819A810F90BA
:1025C0000F90CF91DF911F910F91FF90EF900895A1
:1025D000DF93CF93CDB7DEB7A6E2B0E0E6E2F0E05E
:1025E0008081877F8C93CF91DF910895DF93CF9384
:1025F00000D0CDB7DEB79A83898389819A8100970D
:1026000031F089819A819093CC018093CB010F9016
:102610000F90CF91DF9108951F920F920FB60F92F6
:1026200011242F933F934F935F936F937F938F93D7
:102630009F93AF93BF93EF93FF93DF93CF93CDB768
:10264000DEB78091CB019091CC01009729F0E09109
:10265000CB01F091CC010995CF91DF91FF91EF91E2
:10266000BF91AF919F918F917F916F915F914F91AA
:102670003F912F910F900FBE0F901F901895DF93F1
:10268000CF93CDB7DEB70E94120C80ED0E947F0C75
:1026900083E00E94AC0C0E94320C80ED0E94520C30
:1026A00087EC91E00E94D20C88EC91E00E94D20C61
:1026B00089EC91E00E94D20C8AEC91E00E94D20C4D
:1026C0000E94070D0E94270DCF91DF910895DF939F
:1026D000CF9300D000D0CDB7DEB789836A834B8318
:1026E0002C830E94120C80ED0E947F0C83E00E94DC
:1026F000AC0C8A810E94AC0C89810E94AC0C8B814D
:102700000E94AC0C8C810E94AC0C0E94270D0F9093
:102710000F900F900F90CF91DF910895DF93CF939B
:1027200000D00F92CDB7DEB789836A834B830E94B6
:10273000120C80ED0E947F0C80E00E94AC0C89811D
:102740000E94AC0C8A810E94AC0C8B810E94AC0C64
:102750000E94270D0F900F900F90CF91DF91089559
:10276000DF93CF93CDB7DEB70E94120C80ED0E94AD
:102770007F0C80E00E94AC0C0E94320C80ED0E9425
:10278000520C84EC91E00E94D20C85EC91E00E9406
:10279000D20C86EC91E00E94D20C0E94070D0E94A0
:1027A000270DCF91DF9108950F931F93DF93CF9360
:1027B000CDB7DEB7CC58D0400FB6F894DEBF0FBE11
:1027C000CDBFFE01E757FF4F80E090E0ACE0B2E400
:1027D00080839183A283B3838E010B571F4FFE0129
:1027E000E757FF4F608171818281938120E030E063
:1027F0004AE755E40E941F02DC01CB01F801808307
:102800009183A283B383FE01EB57FF4F60817181F7
:102810008281938120E030E040E85FE30E9425045C
:10282000882344F4FE01ED57FF4F81E090E091834F
:10283000808364C0FE01EB57FF4F6081718182810C
:10284000938120E03FEF4FE757E40E94C50318163D
:102850000CF043C0FE01E757FF4F60817181828118
:10286000938120E030E040E251E40E941F02DC014D
:10287000CB018E010D571F4FBC01CD010E944900B5
:10288000DC01CB01F801918380831FC0FE01EF576B
:10289000FF4F80E991E091838083FE01EF57FF4F66
:1028A000808191810197F1F7FE01EF57FF4F9183EE
:1028B0008083DE01AD57BF4FFE01ED57FF4F808192
:1028C0009181019711969C938E93FE01ED57FF4FD6
:1028D000808191810097D1F627C08E010D571F4F3F
:1028E000FE01EB57FF4F60817181828193810E94CD
:1028F0004900DC01CB01F80191838083DE01A158FE
:10290000BF4FFE01ED57FF4F808191818D939C93C6
:10291000FE01E158FF4F808191810197F1F7FE019F
:10292000E158FF4F9183808380E30E94C41AFE0127
:10293000E558FF4F80E090E0A0EAB0E48083918307
:10294000A283B3838E0109581F4FFE01E558FF4F44
:10295000608171818281938120E030E04AE755E413
:102960000E941F02DC01CB01F80180839183A283C6
:10297000B383FE01E958FF4F6081718182819381A9
:1029800020E030E040E85FE30E942504882344F41F
:10299000FE01EB58FF4F81E090E09183808364C09B
:1029A000FE01E958FF4F608171818281938120E0AF
:1029B0003FEF4FE757E40E94C50318160CF043C0E1
:1029C000FE01E558FF4F608171818281938120E093
:1029D00030E040E251E40E941F02DC01CB018E0195
:1029E0000B581F4FBC01CD010E944900DC01CB01F7
:1029F000F801918380831FC0FE01ED58FF4F80E9ED
:102A000091E091838083FE01ED58FF4F8081918199
:102A10000197F1F7FE01ED58FF4F91838083DE01AE
:102A2000AB58BF4FFE01EB58FF4F8081918101975A
:102A300011969C938E93FE01EB58FF4F80819181FC
:102A40000097D1F627C08E010B581F4FFE01E958A1
:102A5000FF4F60817181828193810E944900DC0176
:102A6000CB01F80191838083DE01AF58BF4FFE0197
:102A7000EB58FF4F808191818D939C93FE01EF581D
:102A8000FF4F808191810197F1F7FE01EF58FF4FD1
:102A90009183808380E30E94C41AFE01E359FF4FB3
:102AA00080E090E0A0E8BFE380839183A283B383BA
:102AB0008E0107591F4FFE01E359FF4F608171815D
:102AC0008281938120E030E04AE755E40E941F02B2
:102AD000DC01CB01F80180839183A283B383FE01E3
:102AE000E759FF4F608171818281938120E030E05E
:102AF00040E85FE30E942504882344F4FE01E9597D
:102B0000FF4F81E090E09183808364C0FE01E7592C
:102B1000FF4F608171818281938120E03FEF4FE719
:102B200057E40E94C50318160CF043C0FE01E35998
:102B3000FF4F608171818281938120E030E040E22B
:102B400051E40E941F02DC01CB018E0109591F4F85
:102B5000BC01CD010E944900DC01CB01F801918349
:102B600080831FC0FE01EB59FF4F80E991E0918304
:102B70008083FE01EB59FF4F808191810197F1F72E
:102B8000FE01EB59FF4F91838083DE01A959BF4FAE
:102B9000FE01E959FF4F80819181019711969C9325
:102BA0008E93FE01E959FF4F808191810097D1F604
:102BB00027C08E0109591F4FFE01E759FF4F608161
:102BC0007181828193810E944900DC01CB01F8016F
:102BD00091838083DE01AD59BF4FFE01E959FF4F5C
:102BE000808191818D939C93FE01ED59FF4F8081EF
:102BF00091810197F1F7FE01ED59FF4F9183808399
:102C000080E30E94C41AFE01E15AFF4F80E090E089
:102C1000A0E8BFE380839183A283B3838E01055A2A
:102C20001F4FFE01E15AFF4F6081718182819381C4
:102C300020E030E04AE755E40E941F02DC01CB01AE
:102C4000F80180839183A283B383FE01E55AFF4F8D
:102C5000608171818281938120E030E040E85FE310
:102C60000E942504882344F4FE01E75AFF4F81E0C7
:102C700090E09183808364C0FE01E55AFF4F60813C
:102C800071818281938120E03FEF4FE757E40E94FA
:102C9000C50318160CF043C0FE01E15AFF4F6081D6
:102CA00071818281938120E030E040E251E40E9412
:102CB0001F02DC01CB018E01075A1F4FBC01CD0161
:102CC0000E944900DC01CB01F801918380831FC081
:102CD000FE01E95AFF4F80E991E091838083FE0174
:102CE000E95AFF4F808191810197F1F7FE01E95A7E
:102CF000FF4F91838083DE01A75ABF4FFE01E75A41
:102D0000FF4F80819181019711969C938E93FE01D4
:102D1000E75AFF4F808191810097D1F627C08E013D
:102D2000075A1F4FFE01E55AFF4F60817181828172
:102D300093810E944900DC01CB01F80191838083DB
:102D4000DE01AB5ABF4FFE01E75AFF4F80819181F0
:102D50008D939C93FE01EB5AFF4F808191810197E7
:102D6000F1F7FE01EB5AFF4F9183808380E20E94CE
:102D7000C41AFE01EF5AFF4F80E090E0A0E8BFE3E5
:102D800080839183A283B3838E01035B1F4FFE0177
:102D9000EF5AFF4F608171818281938120E030E0A2
:102DA0004AE755E40E941F02DC01CB01F801808351
:102DB0009183A283B383FE01E35BFF4F6081718146
:102DC0008281938120E030E040E85FE30E942504A7
:102DD000882344F4FE01E55BFF4F81E090E091839E
:102DE000808364C0FE01E35BFF4F6081718182815B
:102DF000938120E03FEF4FE757E40E94C503181688
:102E00000CF043C0FE01EF5AFF4F60817181828157
:102E1000938120E030E040E251E40E941F02DC0197
:102E2000CB018E01055B1F4FBC01CD010E94490003
:102E3000DC01CB01F801918380831FC0FE01E75BB9
:102E4000FF4F80E991E091838083FE01E75BFF4FB4
:102E5000808191810197F1F7FE01E75BFF4F91833C
:102E60008083DE01A55BBF4FFE01E55BFF4F8081E4
:102E70009181019711969C938E93FE01E55BFF4F24
:102E8000808191810097D1F627C08E01055B1F4F8D
:102E9000FE01E35BFF4F60817181828193810E941B
:102EA0004900DC01CB01F80191838083DE01A95B3D
:102EB000BF4FFE01E55BFF4F808191818D939C9315
:102EC000FE01E95BFF4F808191810197F1F7FE01DF
:102ED000E95BFF4F9183808388E20E94D419FE0151
:102EE000ED5BFF4F80E090E0A0E8BFE3808391833B
:102EF000A283B3838E01015C1F4FFE01ED5BFF4F88
:102F0000608171818281938120E030E04AE755E45D
:102F10000E941F02DC01CB01F80180839183A28310
:102F2000B383FE01FF96608171818281938120E0ED
:102F300030E040E85FE30E94250488232CF481E020
:102F400090E09EAF8DAF46C0FE01FF96608171811B
:102F50008281938120E03FEF4FE757E40E94C50351
:102F6000181664F5FE01ED5BFF4F6081718182816F
:102F7000938120E030E040E251E40E941F02DC0136
:102F8000CB01BC01CD010E944900DC01CB019EAF09
:102F90008DAF0FC080E991E09CAF8BAF8BAD9CAD46
:102FA0000197F1F79CAF8BAF8DAD9EAD01979EAFB2
:102FB0008DAF8DAD9EAD009769F716C0FE01FF96EF
:102FC00060817181828193810E944900DC01CB0183
:102FD0009EAF8DAF8DAD9EAD9AAF89AF89AD9AADE5
:102FE0000197F1F79AAF89AF88E00E94D41980E089
:102FF00090E0A0E8BFE38DAB9EABAFABB8AF6DA9DF
:103000007EA98FA998AD20E030E04AE755E40E9400
:103010001F02DC01CB0189AB9AABABABBCAB69A99E
:103020007AA98BA99CA920E030E040E85FE30E94E8
:10303000250488232CF481E090E098AB8FA73FC053
:1030400069A97AA98BA99CA920E03FEF4FE757E433
:103050000E94C50318164CF56DA97EA98FA998ADDD
:1030600020E030E040E251E40E941F02DC01CB018D
:10307000BC01CD010E944900DC01CB0198AB8FA7B8
:103080000FC080E991E09EA78DA78DA59EA5019711
:10309000F1F79EA78DA78FA598A9019798AB8FA749
:1030A0008FA598A9009769F714C069A97AA98BA977
:1030B0009CA90E944900DC01CB0198AB8FA78FA58A
:1030C00098A99CA78BA78BA59CA50197F1F79CA716
:1030D0008BA781E00E94D41980E090E0A0EAB0E4E0
:1030E0008FA398A7A9A7BAA76FA178A589A59AA524
:1030F00020E030E04AE755E40E941F02DC01CB01EA
:103100008BA39CA3ADA3BEA36BA17CA18DA19EA10B
:1031100020E030E040E85FE30E94250488232CF49F
:1031200081E090E09AA389A33FC06BA17CA18DA10F
:103130009EA120E03FEF4FE757E40E94C503181619
:103140004CF56FA178A589A59AA520E030E040E272
:1031500051E40E941F02DC01CB01BC01CD010E94A1
:103160004900DC01CB019AA389A30FC080E991E05B
:1031700098A38F8F8F8D98A10197F1F798A38F8FC8
:1031800089A19AA101979AA389A389A19AA10097DD
:1031900069F714C06BA17CA18DA19EA10E9449007A
:1031A000DC01CB019AA389A389A19AA19E8F8D8F5F
:1031B0008D8D9E8D0197F1F79E8F8D8F8CE00E94F3
:1031C000D41980E090E0A0E8BFE3898F9A8FAB8F9D
:1031D000BC8F698D7A8D8B8D9C8D20E030E04AE725
:1031E00055E40E941F02DC01CB018D8B9E8BAF8BBF
:1031F000B88F6D897E898F89988D20E030E040E816
:103200005FE30E94250488232CF481E090E09C8BEE
:103210008B8B3FC06D897E898F89988D20E03FEF31
:103220004FE757E40E94C50318164CF5698D7A8D57
:103230008B8D9C8D20E030E040E251E40E941F0223
:10324000DC01CB01BC01CD010E944900DC01CB01B6
:103250009C8B8B8B0FC080E991E09A8B898B89893D
:103260009A890197F1F79A8B898B8B899C890197B1
:103270009C8B8B8B8B899C89009769F714C06D8917
:103280007E898F89988D0E944900DC01CB019C8B3F
:103290008B8B8B899C89988B8F878F8598890197D9
:1032A000F1F7988B8F8786E00E94D41980E090E038
:1032B000A0E8BFE38B879C87AD87BE876B857C8545
:1032C0008D859E8520E030E04AE755E40E941F028C
:1032D000DC01CB018F839887A987BA876F817885B6
:1032E00089859A8520E030E040E85FE30E9425046C
:1032F00088232CF481E090E09E838D833FC06F8112
:10330000788589859A8520E03FEF4FE757E40E9452
:10331000C50318164CF56B857C858D859E8520E050
:1033200030E040E251E40E941F02DC01CB01BC010D
:10333000CD010E944900DC01CB019E838D830FC02B
:1033400080E991E09C838B838B819C810197F1F7CD
:103350009C838B838D819E8101979E838D838D813C
:103360009E81009769F714C06F81788589859A8559
:103370000E944900DC01CB019E838D838D819E815B
:103380009A83898389819A810197F1F79A83898346
:10339000C457DF4F0FB6F894DEBF0FBECDBFCF913D
:1033A000DF911F910F910895DF93CF93CDB7DEB7D3
:1033B0002F970FB6F894DEBF0FBECDBF8F8780E08A
:1033C00063E040E00E94C60F80E062E041E00E94BE
:1033D000C60F8F8582958F70982F917081E060E085
:1033E000492F0E94C60F8F85829586958770982FEA
:1033F000917081E061E0492F0E94C60F8F85829510
:10340000869586958370982F917081E062E0492FB0
:103410000E94C60F8F85982F991F9927991F81E0C9
:1034200064E0492F0E94C60F80E062E040E00E9405
:10343000C60F80E062E041E00E94C60F8F85982FA2
:10344000917081E060E0492F0E94C60F8F858695BC
:10345000982F917081E061E0492F0E94C60F8F85FF
:1034600086958695982F917081E062E0492F0E94A1
:10347000C60F8F85869586958695982F917081E0E9
:1034800064E0492F0E94C60F80E062E040E00E94A5
:10349000C60F80E090E0A0EAB0E48B879C87AD8700
:1034A000BE876B857C858D859E8520E030E04AE770
:1034B00055E40E941F02DC01CB018F839887A98706
:1034C000BA876F81788589859A8520E030E040E869
:1034D0005FE30E94250488232CF481E090E09E8322
:1034E0008D833FC06F81788589859A8520E03FEF85
:1034F0004FE757E40E94C50318164CF56B857C8591
:103500008D859E8520E030E040E251E40E941F025C
:10351000DC01CB01BC01CD010E944900DC01CB01E3
:103520009E838D830FC080E991E09C838B838B8188
:103530009C810197F1F79C838B838D819E810197FC
:103540009E838D838D819E81009769F714C06F8162
:10355000788589859A850E944900DC01CB019E838C
:103560008D838D819E819A83898389819A81019738
:10357000F1F79A8389832F960FB6F894DEBF0FBEBA
:10358000CDBFCF91DF910895DF93CF93CDB7DEB755
:103590002F970FB6F894DEBF0FBECDBF8F8780E0A8
:1035A00063E040E00E94C60F80E062E041E00E94DC
:1035B000C60F8F8582958F70982F917081E060E0A3
:1035C000492F0E94C60F8F85829586958770982F08
:1035D000917081E061E0492F0E94C60F8F8582952E
:1035E000869586958370982F917081E062E0492FCF
:1035F0000E94C60F8F85982F991F9927991F81E0E8
:1036000064E0492F0E94C60F80E062E040E00E9423
:10361000C60F80E090E0A0EAB0E48B879C87AD877E
:10362000BE876B857C858D859E8520E030E04AE7EE
:1036300055E40E941F02DC01CB018F839887A98784
:10364000BA876F81788589859A8520E030E040E8E7
:103650005FE30E94250488232CF481E090E09E83A0
:103660008D833FC06F81788589859A8520E03FEF03
:103670004FE757E40E94C50318164CF56B857C850F
:103680008D859E8520E030E040E251E40E941F02DB
:10369000DC01CB01BC01CD010E944900DC01CB0162
:1036A0009E838D830FC080E991E09C838B838B8107
:1036B0009C810197F1F79C838B838D819E8101977B
:1036C0009E838D838D819E81009769F714C06F81E1
:1036D000788589859A850E944900DC01CB019E830B
:1036E0008D838D819E819A83898389819A810197B7
:1036F000F1F79A8389832F960FB6F894DEBF0FBE39
:10370000CDBFCF91DF910895DF93CF93CDB7DEB7D3
:103710002F970FB6F894DEBF0FBECDBF8F8780E026
:1037200063E041E00E94C60F80E062E041E00E9459
:10373000C60F8F8582958F70982F917081E060E021
:10374000492F0E94C60F8F85829586958770982F86
:10375000917081E061E0492F0E94C60F8F858295AC
:10376000869586958370982F917081E062E0492F4D
:103770000E94C60F8F85982F991F9927991F81E066
:1037800064E0492F0E94C60F80E062E040E00E94A2
:10379000C60F80E062E041E00E94C60F8F85982F3F
:1037A000917081E060E0492F0E94C60F8F85869559
:1037B000982F917081E061E0492F0E94C60F8F859C
:1037C00086958695982F917081E062E0492F0E943E
:1037D000C60F8F85869586958695982F917081E086
:1037E00064E0492F0E94C60F80E062E040E00E9442
:1037F000C60F80E090E0A0EAB0E48B879C87AD879D
:10380000BE876B857C858D859E8520E030E04AE70C
:1038100055E40E941F02DC01CB018F839887A987A2
:10382000BA876F81788589859A8520E030E040E805
:103830005FE30E94250488232CF481E090E09E83BE
:103840008D833FC06F81788589859A8520E03FEF21
:103850004FE757E40E94C50318164CF56B857C852D
:103860008D859E8520E030E040E251E40E941F02F9
:10387000DC01CB01BC01CD010E944900DC01CB0180
:103880009E838D830FC080E991E09C838B838B8125
:103890009C810197F1F79C838B838D819E81019799
:1038A0009E838D838D819E81009769F714C06F81FF
:1038B000788589859A850E944900DC01CB019E8329
:1038C0008D838D819E819A83898389819A810197D5
:1038D000F1F79A8389832F960FB6F894DEBF0FBE57
:1038E000CDBFCF91DF910895DF93CF9300D00F929A
:1038F000CDB7DEB79B838A8319820EC08981282FBA
:1039000030E08A819B81FC01E20FF31F80810E94DD
:10391000841B89818F5F89838981282F30E08A8188
:103920009B81FC01E20FF31F8081882339F70F9000
:103930000F900F90CF91DF9108950F931F93DF9316
:10394000CF93CDB7DEB72E970FB6F894DEBF0FBE7C
:10395000CDBF69877A878B879C875E874D871D825D
:103960001E821F82188683E190E0A0E0B0E0898388
:103970009A83AB83BC8329813A818D859E85FC0126
:10398000E20FF31F108289819A81AB81BC8101977C
:10399000A109B10989839A83AB83BC8389859A8500
:1039A000AB85BC85BB230CF04DC081E090E0A0E06E
:1039B000B0E08D839E83AF83B88789859A85AB8578
:1039C000BC85B095A095909581959F4FAF4FBF4F07
:1039D00089879A87AB87BC8735C029813A818D85D5
:1039E0009E858C01020F131F89859A85AB85BC8546
:1039F0002AE030E040E050E0BC01CD010E94DE2032
:103A0000DC01CB01805DF801808389819A81AB81E3
:103A1000BC810197A109B10989839A83AB83BC83D7
:103A200089859A85AB85BC852AE030E040E050E08E
:103A3000BC01CD010E94DE20DA01C90189879A8785
:103A4000AB87BC8789859A85AB85BC850097A10526
:103A5000B10519F68D819E81AF81B8850097A105CA
:103A6000B105A1F029813A818D859E85FC01E20F87
:103A7000F31F8DE2808389819A81AB81BC8101979C
:103A8000A109B10989839A83AB83BC8389819A8117
:103A9000AB81BC810196A11DB11D89839A83AB8343
:103AA000BC8329813A818D859E85820F931F2E9636
:103AB0000FB6F894DEBF0FBECDBFCF91DF911F913F
:103AC0000F910895DF93CF93CDB7DEB76A970FB606
:103AD000F894DEBF0FBECDBF6F8B788F898F9A8F22
:103AE0008F89988DA98DBA8D0097A105B10599F0A0
:103AF0008F89988DA98DBA8D9E012D5F3F4FBC0196
:103B0000CD01A9010E949D1C9A83898389819A8194
:103B10000E94741C03C080E30E94841B6A960FB647
:103B2000F894DEBF0FBECDBFCF91DF910895DF9334
:103B3000CF93CDB7DEB7A6970FB6F894DEBF0FBE12
:103B4000CDBF6BA37CA38DA39EA36BA17CA18DA1F4
:103B50009EA120E030E048EC52E40E941F02DC010C
:103B6000CB01BC01CD010E945504DC01CB018B8748
:103B70009C87AD87BE878B859C85AD85BE859E0164
:103B8000215F3F4FBC01CD01A9010E949D1C9A8776
:103B900089871D821E821F82188619821A821B82C3
:103BA0001C820BC08D819E81AF81B8850196A11DBD
:103BB000B11D8D839E83AF83B8872D813E8189851A
:103BC0009A85FC01E20FF31F8081882359F78D81CC
:103BD0009E81AF81B8850297A109B1098D839E832B
:103BE000AF83B8878D819E81AF81B8850097A1058D
:103BF000B10549F580E30E94841B25C029813A81E3
:103C00004B815C818D819E81AF81B88528173907F2
:103C10004A075B0719F48EE20E94841B29813A81CE
:103C200089859A85FC01E20FF31F80810E94841B25
:103C300089819A81AB81BC810196A11DB11D8983C7
:103C40009A83AB83BC8329813A8189859A85FC015B
:103C5000E20FF31F8081882389F6A6960FB6F894A9
:103C6000DEBF0FBECDBFCF91DF910895DF93CF931D
:103C700000D00F92CDB7DEB78A836B8380E889834B
:103C80008A81882321F48B818058898314C08A819A
:103C9000813021F48B81805489830DC08A818230E8
:103CA00021F48B818C56898306C08A81833019F474
:103CB0008B818C52898389818068898389810E9464
:103CC000D4190F900F900F90CF91DF910895DF934B
:103CD000CF9300D0CDB7DEB789836A8389816A81AB
:103CE0000E94361E80E20E94841B0F900F90CF919D
:103CF000DF910895DF93CF9300D00F92CDB7DEB759
:103D00008A836B8319820AC08A8169810E94361E68
:103D100080E20E94841B89818F5F898399818B81D6
:103D2000891790F70F900F900F90CF91DF91089522
:103D3000DF93CF93CDB7DEB727970FB6F894DEBFEA
:103D40000FBECDBF9C838B836D834E832F838E816B
:103D50006F810E94361E8D810E94841B1A821982F7
:103D60008D81883030F58D81882F90E0880F991FE4
:103D7000880F991F880F991F8A838A8180648A839C
:103D80008A818F778A838A810E94D41919820EC012
:103D90008981282F30E08B819C81FC01E20FF31F89
:103DA00080810E94841B89818F5F8983898188300B
:103DB00078F382E00E94D41927960FB6F894DEBFFC
:103DC0000FBECDBFCF91DF910895DF93CF9300D089
:103DD00000D00F92CDB7DEB78FEF8B831C821A8293
:103DE0005EC08A81882F90E0FC01E457FE4F9081ED
:103DF00082E0692F40E00E94C60F19823DC0898190
:103E0000882F90E0FC01E857FE4F90819E012C5FC7
:103E10003F4F82E0692FA9010E940F118C818823F6
:103E200041F58981482F50E08A81282F30E0CA016E
:103E3000880F991F880F991F820F931FFC01E0576D
:103E4000FE4F80818B830FC08981882F90E0FC0119
:103E5000E857FE4F90819E012C5F3F4F82E0692F13
:103E6000A9010E940F118C81882371F38B818D83AE
:103E70001CC089818F5F89838981843008F4BFCF1A
:103E80008A81882F90E0FC01E457FE4F908182E008
:103E9000692F41E00E94C60F8A818F5F8A838A81E1
:103EA000843008F49ECF8B818D838D810F900F908D
:103EB0000F900F900F90CF91DF910895DF93CF93E4
:103EC00000D000D0CDB7DEB78C838C819AE0692F0B
:103ED0000E94D220892F8B838C819AE0692F0E94C7
:103EE000D2208295807F8A839A818B81892B8983D6
:103EF00089810F900F900F900F90CF91DF910895CF
:103F00000F931F93DF93CF93CDB7DEB70E94B00B13
:103F10000E94D4130E94D60B83E00E945E1F182FCC
:103F20008BE00E945E1F082F87E10E945E1F982F82
:103F3000812F65E0402F292F0E94671380E00E94A7
:103F40005E1F082F8CE00E945E1F182F8FE00E94DA
:103F50005E1F982F802F612F492F0E948E130E9481
:103F6000B0138091C40182958F70882F90E09C01DE
:103F7000220F331FC901880F991F880F991F820FC5
:103F8000931F982F8091C4018F70890F8093C40173
:103F90008091C50182958F70882F90E09C01220F3F
:103FA000331FC901880F991F880F991F820F931F14
:103FB000982F8091C5018F70890F8093C5018091E2
:103FC000C60182958F70882F90E09C01220F331FCD
:103FD000C901880F991F880F991F820F931F982F6F
:103FE0008091C6018F70890F8093C60180E060E0E8
:103FF0000E94361E8091C6018A3018F480E30E9428
:10400000841B8091C601882F90E0A0E0B0E0BC0145
:10401000CD010E94621D8AE30E94841B8091C5012C
:104020008A3018F480E30E94841B8091C501882F98
:1040300090E0A0E0B0E0BC01CD010E94621D8AE3E7
:104040000E94841B8091C4018A3018F480E30E948E
:10405000841B8091C401882F90E0A0E0B0E0BC01F7
:10406000CD010E94621D0E943F138091C80182957C
:104070008F70882F90E09C01220F331FC901880F99
:10408000991F880F991F820F931F982F8091C80145
:104090008F70890F8093C8018091C90182958F70BC
:1040A000882F90E09C01220F331FC901880F991FB0
:1040B000880F991F820F931F982F8091C9018F70CD
:1040C000890F8093C9018091CA0182958F70882FD2
:1040D00090E09C01220F331FC901880F991F880FA0
:1040E000991F820F931F982F8091CA018F70890F9B
:1040F0008093CA0181E060E00E94361E8091C80171
:10410000882F90E0A0E0B0E0BC01CD010E94621DCC
:104110008FE20E94841B8091C901882F90E0A0E06B
:10412000B0E0BC01CD010E94621D8FE20E94841BA1
:104130008091CA01882F90E0A0E0B0E0BC01CD01E1
:104140000E94621D80E20E94841B8091C701882F1B
:1041500090E0880F991FFC01E056FE4F808191810D
:104160000E94741CFCCE629FD001739FF001829F5D
:10417000E00DF11D649FE00DF11D929FF00D839FF6
:10418000F00D749FF00D659FF00D9927729FB00D93
:10419000E11DF91F639FB00DE11DF91FBD01CF01A6
:1041A00011240895991B79E004C0991F961708F00F
:1041B000961B881F7A95C9F78095089597FB092E5D
:1041C00005260ED057FD04D014D00AD0001C38F4B8
:1041D00050954095309521953F4F4F4F5F4F089533
:1041E000F6F790958095709561957F4F8F4F9F4F13
:1041F0000895A1E21A2EAA1BBB1BFD010DC0AA1F28
:10420000BB1FEE1FFF1FA217B307E407F50720F03F
:10421000A21BB30BE40BF50B661F771F881F991FBA
:104220001A9469F760957095809590959B01AC0103
:10423000BD01CF0108952F923F924F925F926F92EE
:104240007F928F929F92AF92BF92CF92DF92EF9226
:10425000FF920F931F93CF93DF93CDB7DEB7CA1BA7
:10426000DB0B0FB6F894DEBF0FBECDBF09942A88D2
:10427000398848885F846E847D848C849B84AA847A
:10428000B984C884DF80EE80FD800C811B81AA8107
:10429000B981CE0FD11D0FB6F894DEBF0FBECDBFD2
:0842A000ED010895F894FFCF31
:1042A80053756E004D6F6E00547565005765640058
:1042B800546875004672690053617400000000007C
:1042C80000000000000102020303030304040404C5
:1042D800040404040505050505050505050505058A
:1042E800050505050606060606060606060606066A
:1042F8000606060606060606060606060606060656
:104308000606060607070707070707070707070739
:104318000707070707070707070707070707070725
:104328000707070707070707070707070707070715
:104338000707070707070707070707070707070705
:1043480007070707080808080808080808080808E9
:1043580008080808080808080808080808080808D5
:1043680008080808080808080808080808080808C5
:1043780008080808080808080808080808080808B5
:1043880008080808080808080808080808080808A5
:104398000808080808080808080808080808080895
:1043A8000808080808080808080808080808080885
:1043B8000808080808080808080808080808080875
:1043C800080808080000A0400302010007060504C9
:1043D8000708092F0405062A0102032D43003D2B77
:0E43E8006000640068006C00700074007800D3
:00000001FF
